:0A0000000C943F000C9400000C94D7
:10000A0000000C9400000C9400000C9400000C9466
:10001A0000000C9400000C946C000C9400000C94EA
:10002A0000000C9400000C9400000C9400000C9446
:10003A0000000C9400000C9400000C9400000C9436
:10004A0000000C9400000C9400001027E8036400E0
:10005A000A00010000100001100001004100000028
:10006A002563000080C004000400660002006001ED
:10007A006E000000F894EE27ECBBF1E0FBBFEBBF8B
:10008A00E5BF8DE0A2E0BB27ED938A95E9F780E012
:10009A0094E0A0E6ED930197E9F7E0E7F0E08591B7
:1000AA009591009761F0A591B59105901590BF01C2
:1000BA00F00105900D920197E1F7FB01F0CFEFE512
:1000CA00EDBFE4E0EEBFC0E6D1E00C94B5000A92C1
:1000DA001A92FA926A937A938A939A93AA93BA9300
:1000EA00EA93FA93EFB7EA93EBE5F0E04E165F0670
:1000FA002CF5F30131963F01E8E2F0E0E615F70549
:10010A00E9F4EF97A597FE01FA93EA93EAE6F0E09D
:10011A00FA93EA93E42DFF27662777270E946A035A
:10012A0084E00E943C022896DE010E94BE02F2018F
:10013A0031962F0166247724EF96A596EFEFEDBD51
:10014A00EEEFECBDE991EFBFF991E991B991A9916F
:10015A009991899179916991F990199009901895D5
:10016A00A4E10E94CF02E0E0EFBDE5E0EEBDEFEFD3
:10017A00EDBDEEEFECBDE4E0E9BFE0E0E5BFE4BFD2
:10018A007894FFCFFFCFBA93AA931A930A93AA81BE
:10019A00BB8112960E946203309759F1AA81BB81F2
:1001AA0014960E9462038F01309761F00230E0E0FA
:1001BA001E0798F0F80131978F01AA81BB81149626
:1001CA00ED93FC93AA81BB811296ED91FD91319634
:1001DA00FE93EE933197AC81A083AA81BB810E94E2
:1001EA006203FF232AF0ED91FD913196FE93EE937F
:1001FA0006C0AA81BB81EFEFFFEFED93FC93198153
:10020A00088125960895BA93AA9326970E946F03A8
:10021A0010E0AC85BD85E0E0F0E0ED93FC93EA895F
:10022A00FB893196EA8BFB8B3197E4912E2FE030D4
:10023A0009F415C1E12FE03039F4253211F411E047
:10024A0002C00E9416030AC1E130A9F4253219F44A
:10025A000E94160302C112E040E000E02D3211F4C0
:10026A0001E0FCC02B3211F44BE2F8C0203211F449
:10027A0040E2F4C002C0E23039F450E013E0203327
:10028A0011F40068EBC003C0E33009F0E7C0203383
:10029A0010F02A3308F007C0AAE05A9F502DE22F27
:1002AA00E0535E0FDBC0E22FE33649F40E941D03E0
:1002BA00E889F989A481AA930E942303CEC0E3376F
:1002CA0041F40E941D030E9429030E94FD021E2F71
:1002DA000AC0E03761F40E941D030E9429030E94AC
:1002EA0009031E2F086002600F7730E034C0E4363D
:1002FA0011F0E93611F4046002C0E53731F4E4E59F
:10030A00F0E0EE83FF8315E00CC0E83511F40860D5
:10031A0003C0E83709F0A1C0EEE5F0E0EE83FF8301
:10032A0014E002FF14C00E941D030E943303AB8530
:10033A00AA233AF4EA85FB850E945E03EA87FB87D3
:10034A004DE2403011F01F5F01C00B7F04C00E94D4
:10035A001D030E94330300FD11C0151778F407FF2F
:10036A0008C002FF04C00B7F242F115001C020E3F4
:10037A0001C020E20E9416035150EFCF312F01FF36
:10038A0017C03030A1F003FF06C0EE81FF8125912E
:10039A00EE83FF8305C0AE81BF812D91AE83BF83FB
:1003AA000E941603503009F051503150EACF4BC029
:1003BA0020E3EE81FF810E946603E887F987EE81D8
:1003CA00FF813296EE83FF83E885F985AA85BB858E
:1003DA00AE17BF0750F02F5FA885B985EA85FB8560
:1003EA00EA1BFB0BEA87FB87EFCF2A3328F003FFD0
:1003FA0002C0295F01C0295D04FD1AC0213320F41F
:10040A00A885B985119709F409C0531710F000FFA0
:10041A0001C013C020E207FF0BC020E3006102FF06
:10042A0007C00B7F4A930E942303503009F05150B2
:10043A000E941603503009F051503150A885B985F1
:10044A00129708F0B5CF00FF08C0503031F0515074
:10045A00E0E2EA930E942303F8CF10E0E0CEAC85F5
:10046A00BD850E9462030E94760364960895FF92F6
:10047A00F82E26970E9471030E943B03309719F4C5
:10048A00EFEFFFEF23C0DE0116960E945A038D019B
:10049A000E943B03EE83FF83E0E0E887E987DE0101
:1004AA001A960E945A030E946203FA93EA931A93D5
:1004BA000A93E8ECF0E0FA93EA93DE011A96A3DED7
:1004CA009F01AE81BF81E0E0EC93F9010E947803BD
:1004DA002A96FF900895AA93E2B3EF70AE2FE881AF
:1004EA00E07FEA2BE2BB84E18A95F1F7929A84E1F4
:1004FA008A95F1F7929884E18A95F1F777C0AA93E1
:10050A00A881E9DFE881E295E883A881E4DF88EC45
:10051A008A95F1F76BC0AA93E881F0E0E05AFE4FA2
:10052A00E081A981AE0FEBDF998088802296089539
:10053A00A2E00E944203ACE0E2DFA1E00E94420393
:10054A00E0E08E2E9E2E0895AA93A881AA3011F07B
:10055A009B1448F0E0E0EA938394A82DDCDFA8819D
:10056A00AA3009F443C09394909AA881C8DF90985E
:10057A003DC0BA93AA931A93A981BA81ED91A9832E
:10058A00BA831E2FE03019F0A12FDEDFF5CF1881D4
:10059A0023960895AA93E1B3E06FE1BB8A9A889AF9
:1005AA00899A929890989198B880E881E058E09357
:1005BA006201E881E054E0936301A4E1B0E00E94A3
:1005CA0050030E9448030E9448030E944803A0E285
:1005DA0082DF8CE291E00197F1F7A8E290DFA4E0D4
:1005EA008EDFA5E88CDFA6E08ADFA2DF21960895D8
:1005FA00BA93AA93A991B991EE27FF276D91662321
:10060A0011F03196FBCF0895BA93AA93AA27BB2774
:10061A00E991F9910590002011F01196FBCFFD01A7
:10062A0008952A93AD85BE85EF85F88909950895C1
:10063A00E889F9893497E88BF98B0895AD85BE85E9
:10064A00EF85F88909950895A889B98914960E94B1
:10065A006203EE83FF83AE81BF810895A889B989B9
:10066A0014960E946203EA87FB870895DE011C96AE
:10067A000E945A030E94620308950E948402A3E022
:10068A00B0E00C945003A0E30E9470028CE291E067
:10069A000197F1F70895109639F088EB9BE00197DE
:1006AA00F1F7A8951197C9F708950024AF0DB01D69
:1006BA000895F195E195F0400895ED91FC91119717
:1006CA0008950590F491E02D08957A936A93FA9328
:1006DA00EA9308955A934A933A932A931A930A9358
:1006EA0008955D814C813B812A8119810881089591
:00000001FF
