:040000000C9441001B
:100004000C9400000C9400000C9400000C9400006C
:100014000C946E000C9400000C9400000C940000EE
:100024000C9400000C9400000C9400000C9400004C
:100034000C9400000C9400000C9400000C9400003C
:100044000C9400000C9400000C9400000C9400002C
:100054001027E80364000A000100001000011000EA
:100064000100256420487A00467265713A0080C018
:10007400060060016C0002007A0172000000F8942E
:10008400EE27ECBBF1E0FBBFEBBFE5BF8DE0A2E0E8
:10009400BB27ED938A95E9F780E094E0A0E6ED9321
:1000A4000197E9F7E4E7F0E085919591009761F015
:1000B400A591B59105901590BF01F00105900D92A1
:1000C4000197E1F7FB01F0CFEFE5EDBFE4E0EEBF10
:1000D400C0E6D1E00C94AD000A921A926A937A9326
:1000E4008A939A93AA93BA93EA93FA93EFB7EA930B
:1000F400E7B5FE2FE0E0DF01E6B5F0E0EA0FFB1F15
:100104004F01A52DB0E0E8EEF3E00E948403E80D72
:10011400F91DE619F7095F0166277727A0E4B2E421
:100124008FE090E00E948903E0936601F0936701F9
:10013400609368017093690155243401E991EFBF1C
:10014400F991E991B991A9919991899179916991DB
:10015400199009901895E0E0E4BBE5BBEFEFE1BB33
:10016400E0E4E2BBE0E0EFBDE2E4EEBDE4E2E9BFDF
:10017400E0E8E8B9E0E0E0BFA0E10E94E902789499
:10018400EAE6F1E0FA93EA93E6E6F0E0FA93EA931A
:1001940080E00E9456022496E0E0EA93A0E00E94E8
:1001A400AA02A0E6B1E00E94D802E6E0EA93A0E049
:1001B4000E94AA02AAE6B1E00E94D802E1CFFFCFD2
:1001C400BA93AA931A930A93AA81BB8112960E94A6
:1001D400BC03309759F1AA81BB8114960E94BC03D9
:1001E4008F01309761F00230E0E01E0798F0F801CB
:1001F40031978F01AA81BB811496ED93FC93AA8158
:10020400BB811296ED91FD913196FE93EE93319759
:10021400AC81A083AA81BB810E94BC03FF232AF086
:10022400ED91FD913196FE93EE9306C0AA81BB81B8
:10023400EFEFFFEFED93FC93198108812596089564
:10024400BA93AA9326970E94C40310E0AC85BD8597
:10025400E0E0F0E0ED93FC93EA89FB893196EA8BC8
:10026400FB8B3197E4912E2FE03009F415C1E12F77
:10027400E03039F4253211F411E002C00E94300359
:100284000AC1E130A9F4253219F40E94300302C1F5
:1002940012E040E000E02D3211F401E0FCC02B320A
:1002A40011F44BE2F8C0203211F440E2F4C002C071
:1002B400E23039F450E013E0203311F40068EBC06D
:1002C40003C0E33009F0E7C0203310F02A3308F00C
:1002D40007C0AAE05A9F502DE22FE0535E0FDBC007
:1002E400E22FE33649F40E943703E889F989A481AF
:1002F400AA930E943D03CEC0E33741F40E94370322
:100304000E9443030E9417031E2F0AC0E03761F4C2
:100314000E9437030E9443030E9423031E2F086098
:1003240002600F7730E034C0E43611F0E93611F49E
:10033400046002C0E53731F4E4E5F0E0EE83FF83C6
:1003440015E00CC0E83511F4086003C0E83709F083
:10035400A1C0EEE5F0E0EE83FF8314E002FF14C0D9
:100364000E9437030E944D03AB85AA233AF4EA8521
:10037400FB850E947803EA87FB874DE2403011F049
:100384001F5F01C00B7F04C00E9437030E944D030E
:1003940000FD11C0151778F407FF08C002FF04C060
:1003A4000B7F242F115001C020E301C020E20E94E2
:1003B40030035150EFCF312F01FF17C03030A1F07F
:1003C40003FF06C0EE81FF812591EE83FF8305C004
:1003D400AE81BF812D91AE83BF830E943003503024
:1003E40009F051503150EACF4BC020E3EE81FF8138
:1003F4000E94C003E887F987EE81FF813296EE837D
:10040400FF83E885F985AA85BB85AE17BF0750F041
:100414002F5FA885B985EA85FB85EA1BFB0BEA8774
:10042400FB87EFCF2A3328F003FF02C0295F01C006
:10043400295D04FD1AC0213320F4A885B9851197DC
:1004440009F409C0531710F000FF01C013C020E2E3
:1004540007FF0BC020E3006102FF07C00B7F4A9334
:100464000E943D03503009F051500E943003503037
:1004740009F051503150A885B985129708F0B5CFCD
:1004840000FF08C0503031F05150E0E2EA930E947E
:100494003D03F8CF10E0E0CEAC85BD850E94BC03DF
:1004A4000E94CB0364960895FF92F82E26970E942B
:1004B400C6030E945503309719F4EFEFFFEF23C0F2
:1004C400DE0116960E9474038D010E945503EE838B
:1004D400FF83E0E0E887E987DE011A960E9474034F
:1004E4000E94BC03FA93EA931A930A93E2EEF0E0B3
:1004F400FA93EA93DE011A96A3DE9F01AE81BF81CF
:10050400E0E0EC93F9010E94CD032A96FF90089550
:10051400AA93E5B3EF70AE2FE881E07FEA2BE5BB49
:1005240084E18A95F1F7AA9A84E18A95F1F7AA9869
:1005340084E18A95F1F777C0AA93A881E9DFE8817D
:10054400E295E883A881E4DF88EC8A95F1F76BC033
:10055400AA93E881F0E0E658FE4FE081A981AE0F4E
:10056400EBDF4980D88022960895A2E00E945C03C4
:10057400ACE0E2DFA1E00E945C03E0E0DE2E4E2E60
:100584000895AA93A881AA3011F04C1448F0E0E031
:10059400EA93D394AD2DDCDFA881AA3009F443C0DB
:1005A4004394A89AA881C8DFA8983DC0BA93AA9397
:1005B4001A93A981BA81ED91A983BA831E2FE030E1
:1005C40019F0A12FDEDFF5CF188123960895AA93A1
:1005D400E4B3E06FE4BBA29AA09AA19AAA98A8985F
:1005E400A998C880E881E058E0937C01E881E05450
:1005F400E0937D01A4E1B0E00E946A030E946203DB
:100604000E9462030E946203A0E282DF8CE291E016
:100614000197F1F7A8E290DFA4E08EDFA5E88CDF74
:10062400A6E08ADFA2DF21960895BA93AA93A9913E
:10063400B991EE27FF276D91662311F03196FBCF18
:100644000895BA93AA93AA27BB27E991F991059033
:10065400002011F01196FBCFFD0108952A93AD857A
:10066400BE85EF85F88909950895E889F989349755
:10067400E88BF98B0895AD85BE85EF85F8890995DA
:100684000895A889B98914960E94BC03EE83FF8358
:10069400AE81BF810895A889B98914960E94BC03CC
:1006A400EA87FB870895DE011C960E9474030E946A
:1006B400BC0308950E949E02A3E0B0E00C946A0378
:1006C400A0E30E948A028CE291E00197F1F7089579
:1006D400109639F088EB9BE00197F1F7A8951197F4
:1006E400C9F708950024AF0DB01D0895F195E19563
:1006F400F0400895FA9FF02DEB9FF00DEA9FE02D56
:10070400F10D089529D0F6DF0EF4F0DF08953F933C
:100714004F935F93002411244427552730E2AA0FF6
:10072400BB1F881F991F001C111C441F551F0E1A44
:100734001F0A460B570B28F40E0E1F1E461F571F89
:1007440001C0A1603A9559F7FD01BC01D001CA016D
:100754005F914F913F910895E894F7FF02C0C6DF7F
:100764006894B7FF06C0A095B095119600F803945D
:1007740000FA0895ED91FC91119708950590F49174
:10078400E02D08955A934A933A932A931A930A931D
:1007940008955D814C813B812A81198108810895E6
:00000001FF
