:080000000C9448000C94000070
:100008000C9400000C9400000C9400000C94000068
:100018000C9400000C9400000C94AC000C94750037
:100028000C9400000C9400000C9400000C94000048
:100038000C9400000C9400000C9400000C94000038
:100048000C9400000C9400000C9400001027E803A6
:1000580064000A0001000010000110000100000007
:10006800000003000300BF008600DB00CF0066002D
:10007800ED00FD008700FF00EF00080006006600A5
:10008800130060016E000000F894EE27ECBBF1E06D
:10009800FBBFEBBFE5BF8DE0A2E0BB27ED938A95E0
:1000A800E9F780E094E0A0E6ED930197E9F7E2E84C
:1000B800F0E085919591009761F0A591B591059033
:1000C8001590BF01F00105900D920197E1F7FB0132
:1000D800F0CFEFE5EDBFE4E0EEBFC0E6D1E00C9471
:1000E800F1000E940A01F30131963F01E2E0F0E0DD
:1000F800E615F70551F5E5B3AFEFEA274E2E55247F
:10010800EFEFE425E5BBF6010E941201A0E6B1E09D
:100118000E941B01EC91E2BB55944794042C0528DE
:1001280019F4E8E0F0E02F01EFEF4E2645BA4E262D
:1001380066247724F60131976F01EFEFFFEFEC1596
:10014800FD0519F4E3E0F0E06F01E0E0E2BF3DC037
:100158000E940A01F40131964F01E6E9F0E0E81542
:10016800F90579F5AAE7B1E0ED91FD913196FE9395
:10017800EE930024A014B004FCF0F5010E941201D3
:10018800EA30A0E0FA07A1F4F5013197A4E7B1E05D
:100198000E941B01ED91FD913196FE93EE93F501BE
:1001A800A4E7B1E00E941B01E0E0F0E0ED93FC93CE
:1001B800F50131975F01DDCFE3E0F0E05F018824CE
:1001C8009924EFEFEDBDE0EFECBDE991EFBFF991B8
:1001D800E991B991A99109901895EFEFE1BBE4BBBA
:1001E800EFEEE5BBE5E0E3BFE0E0E2BFECBFEFBD6B
:1001F800E5E0EEBDEFEFEDBDE0EFECBDE0E0E5BF23
:10020800E4BFE5E0E9BF7894FFCFFFCF0A92AA9355
:10021800BA93EA93FA93EFB7EA930895A4E7B1E0A3
:10022800EE0FFF1FAE0FBF1F0E9420010895EE0FB3
:10023800FF1FAE0FBF1F0895ED91FC911197089510
:00000001FF
