:0E0000000C9437000C9400000C9400000C943B
:10000E0000000C9400000C9400000C9400000C9462
:10001E0000000C9400000C9400000C9400000C9452
:10002E0000000C9400000C9400000C9400000C9442
:10003E0000000C9400000C9400000C9400000C9432
:10004E0000000C94000048656C6C6F20576F726C4A
:10005E0064203A44000080C0020060016400000089
:10006E00F894EE27ECBBF1E0FBBFEBBFE5BF8DE0F4
:10007E00A2E0BB27ED938A95E9F780E094E0A0E635
:10008E00ED930197E9F7E6E6F0E0859195910097FB
:10009E0061F0A591B59105901590BF01F001059005
:1000AE000D920197E1F7FB01F0CFEFE5EDBFE4E034
:1000BE00EEBFC0E6D1E00C946400A4E668D0E3E0A5
:1000CE00EA93A1E025D0A4E5B0E04ED0F8CFFFCF63
:1000DE00AA93E2B3EF70AE2FE881E07FEA2BE2BB8A
:1000EE0084E18A95F1F7929A84E18A95F1F79298D4
:1000FE0084E18A95F1F774C0AA93A881E9DFE881BB
:10010E00E295E883A881E4DF88EC8A95F1F768C070
:10011E00AA93E881F0E0E05AFE4FE081A981AE0F8C
:10012E00EBDF5980488022960895A2E05BD0ACE0C8
:10013E00E3DFA1E057D0E0E04E2E5E2E0895AA93A5
:10014E00A881AA3011F0571448F0E0E0EA934394E6
:10015E00A42DDEDFA881AA3009F442C05394909AF0
:10016E00A881CADF90983CC0BA93AA931A93E981EA
:10017E00FA813196E983FA833197E4911E2FE030AC
:10018E0019F0A12FDCDFF3CF188123960895AA93DF
:10019E00E1B3E06FE1BB8A9A889A899A9298909817
:1001AE0091987880E881E058E0936201E881E0540C
:1001BE00E0936301A4E1B0E00E94050118D017D0CE
:1001CE0016D0A0E285DF8CE291E00197F1F7A8E26C
:1001DE0093DFA4E091DFA5E88FDFA6E08DDFA5DF3A
:1001EE002196089589DFA3E0B0E00C940501A0E309
:1001FE006FDF8CE291E00197F1F70895109639F0D8
:10020E0088EB9BE00197F1F7A8951197C9F7089530
:00000001FF
